{
  "contractName": "Capsule",
  "abi": [
    {
      "constant": false,
      "inputs": [
        {
          "name": "message",
          "type": "bytes32"
        }
      ],
      "name": "setMessage",
      "outputs": [],
      "payable": false,
      "stateMutability": "nonpayable",
      "type": "function"
    },
    {
      "constant": true,
      "inputs": [],
      "name": "getTimeDifference",
      "outputs": [
        {
          "name": "timeDiff",
          "type": "uint256"
        }
      ],
      "payable": false,
      "stateMutability": "view",
      "type": "function"
    },
    {
      "constant": true,
      "inputs": [],
      "name": "getMessage",
      "outputs": [
        {
          "name": "message",
          "type": "bytes32"
        },
        {
          "name": "nope",
          "type": "uint256"
        }
      ],
      "payable": false,
      "stateMutability": "view",
      "type": "function"
    },
    {
      "constant": true,
      "inputs": [],
      "name": "getTimeStamp",
      "outputs": [
        {
          "name": "time",
          "type": "uint256"
        }
      ],
      "payable": false,
      "stateMutability": "view",
      "type": "function"
    }
  ],
  "bytecode": "0x6060604052341561000f57600080fd5b6102e68061001e6000396000f300606060405260043610610062576000357c0100000000000000000000000000000000000000000000000000000000900463ffffffff168063b32fead514610067578063c01f2d271461008e578063ce6d41de146100b7578063da235b22146100ef575b600080fd5b341561007257600080fd5b61008c600480803560001916906020019091905050610118565b005b341561009957600080fd5b6100a16101a6565b6040518082815260200191505060405180910390f35b34156100c257600080fd5b6100ca6101ef565b6040518083600019166000191681526020018281526020019250505060405180910390f35b34156100fa57600080fd5b610102610273565b6040518082815260200191505060405180910390f35b806000803373ffffffffffffffffffffffffffffffffffffffff1673ffffffffffffffffffffffffffffffffffffffff168152602001908152602001600020816000191690555042600160003373ffffffffffffffffffffffffffffffffffffffff1673ffffffffffffffffffffffffffffffffffffffff1681526020019081526020016000208190555050565b6000600160003373ffffffffffffffffffffffffffffffffffffffff1673ffffffffffffffffffffffffffffffffffffffff168152602001908152602001600020544203905090565b60008060006101fc6101a6565b90507f4e6f7420796574000000000000000000000000000000000000000000000000009250620f424081111561026e576000803373ffffffffffffffffffffffffffffffffffffffff1673ffffffffffffffffffffffffffffffffffffffff1681526020019081526020016000205492505b509091565b6000600160003373ffffffffffffffffffffffffffffffffffffffff1673ffffffffffffffffffffffffffffffffffffffff168152602001908152602001600020549050905600a165627a7a723058203595fa9b86123e876afe0be6bd2120bd8256d8e40ca977f7b8b95be3d97148370029",
  "source": "pragma solidity ^0.4.2;\n\ncontract Capsule {\n  mapping (address => bytes32) messages;\n  mapping (address => uint) timestamps;\n\n  function setMessage(bytes32 message) public {\n    messages[msg.sender] = message;\n    timestamps[msg.sender] = block.timestamp;\n  }\n\n  function getMessage() constant returns(bytes32 message, uint nope) {\n    uint diff = getTimeDifference();\n    message = \"Not yet\";\n    if (diff > 1000000) {\n      message = messages[msg.sender];\n    }\n  }\n\n  function getTimeStamp() constant returns(uint time) {\n    return timestamps[msg.sender];\n  }\n\n  function getTimeDifference() constant returns(uint timeDiff) {\n    return now - timestamps[msg.sender];\n  }\n}",
  "sourcePath": "/Users/emessess/FSA/Senior/Stackathon/Notes/contracts/Capsule.sol",
  "compiler": {
    "name": "solc",
    "version": "0.4.18+commit.9cf6e910.Emscripten.clang"
  },
  "schemaVersion": "1.0.1",
  "updatedAt": "2017-11-12T15:22:33.822Z"
}