{
  "contractName": "Capsule",
  "abi": [
    {
      "constant": false,
      "inputs": [
        {
          "name": "message",
          "type": "bytes32"
        }
      ],
      "name": "setMessage",
      "outputs": [],
      "payable": false,
      "stateMutability": "nonpayable",
      "type": "function"
    },
    {
      "constant": false,
      "inputs": [],
      "name": "getMessage",
      "outputs": [
        {
          "name": "",
          "type": "bytes32"
        }
      ],
      "payable": false,
      "stateMutability": "nonpayable",
      "type": "function"
    }
  ],
  "bytecode": "0x6060604052341561000f57600080fd5b6101658061001e6000396000f30060606040526004361061004c576000357c0100000000000000000000000000000000000000000000000000000000900463ffffffff168063b32fead514610051578063ce6d41de14610078575b600080fd5b341561005c57600080fd5b6100766004808035600019169060200190919050506100a9565b005b341561008357600080fd5b61008b6100f3565b60405180826000191660001916815260200191505060405180910390f35b806000803373ffffffffffffffffffffffffffffffffffffffff1673ffffffffffffffffffffffffffffffffffffffff168152602001908152602001600020816000191690555050565b60008060003373ffffffffffffffffffffffffffffffffffffffff1673ffffffffffffffffffffffffffffffffffffffff168152602001908152602001600020549050905600a165627a7a7230582087c48d4281a5a14d82646202ef6666cf88f6ccf5d6b4f5d0db6accb86d0f822e0029",
  "source": "pragma solidity ^0.4.2;\n\ncontract Capsule {\n  mapping (address => bytes32) messages;\n\n  function setMessage(bytes32 message) {\n    messages[msg.sender] = message;\n  }\n\n  function getMessage() returns(bytes32) {\n    return messages[msg.sender];\n  }\n}",
  "sourcePath": "/Users/emessess/FSA/Senior/Stackathon/Notes/contracts/Capsule.sol",
  "compiler": {
    "name": "solc",
    "version": "0.4.18+commit.9cf6e910.Emscripten.clang"
  },
  "schemaVersion": "1.0.1",
  "updatedAt": "2017-11-11T14:59:04.660Z"
}