{
  "contractName": "Capsule",
  "abi": [
    {
      "constant": true,
      "inputs": [
        {
          "name": "",
          "type": "address"
        }
      ],
      "name": "messages",
      "outputs": [
        {
          "name": "",
          "type": "bytes32"
        }
      ],
      "payable": false,
      "stateMutability": "view",
      "type": "function"
    },
    {
      "constant": false,
      "inputs": [
        {
          "name": "message",
          "type": "bytes32"
        }
      ],
      "name": "setMessage",
      "outputs": [
        {
          "name": "",
          "type": "bytes32"
        }
      ],
      "payable": false,
      "stateMutability": "nonpayable",
      "type": "function"
    },
    {
      "constant": true,
      "inputs": [],
      "name": "getMessage",
      "outputs": [
        {
          "name": "",
          "type": "bytes32"
        }
      ],
      "payable": false,
      "stateMutability": "view",
      "type": "function"
    }
  ],
  "bytecode": "0x6060604052341561000f57600080fd5b6101dd8061001e6000396000f300606060405260043610610057576000357c0100000000000000000000000000000000000000000000000000000000900463ffffffff1680635fdd59f81461005c578063b32fead5146100b1578063ce6d41de146100d8575b600080fd5b341561006757600080fd5b610093600480803573ffffffffffffffffffffffffffffffffffffffff16906020019091905050610109565b60405180826000191660001916815260200191505060405180910390f35b34156100bc57600080fd5b6100d6600480803560001916906020019091905050610121565b005b34156100e357600080fd5b6100eb61016b565b60405180826000191660001916815260200191505060405180910390f35b60006020528060005260406000206000915090505481565b806000803373ffffffffffffffffffffffffffffffffffffffff1673ffffffffffffffffffffffffffffffffffffffff168152602001908152602001600020816000191690555050565b60008060003373ffffffffffffffffffffffffffffffffffffffff1673ffffffffffffffffffffffffffffffffffffffff168152602001908152602001600020549050905600a165627a7a72305820e257aa98a6d76094767acf70a583d93a63c0d40715b8ee7f8b4012f794cac3d00029",
  "source": "pragma solidity ^0.4.2;\n\ncontract Capsule {\n  mapping (address => bytes32) public messages;\n\n  function setMessage(bytes32 message) public {\n    messages[msg.sender] = message;\n  }\n\n  function getMessage() constant returns(bytes32) {\n    return messages[msg.sender];\n  }\n}",
  "sourcePath": "/Users/emessess/FSA/Senior/Stackathon/Notes/contracts/Capsule.sol",
  "compiler": {
    "name": "solc",
    "version": "0.4.18+commit.9cf6e910.Emscripten.clang"
  },
  "schemaVersion": "1.0.1",
  "updatedAt": "2017-11-13T13:12:20.984Z"
}