{
  "contractName": "Capsule",
  "abi": [
    {
      "constant": false,
      "inputs": [
        {
          "name": "message",
          "type": "bytes32"
        }
      ],
      "name": "setMessage",
      "outputs": [],
      "payable": false,
      "stateMutability": "nonpayable",
      "type": "function"
    },
    {
      "constant": false,
      "inputs": [],
      "name": "getMessage",
      "outputs": [
        {
          "name": "",
          "type": "bytes32"
        }
      ],
      "payable": false,
      "stateMutability": "nonpayable",
      "type": "function"
    }
  ],
  "bytecode": "0x6060604052341561000f57600080fd5b6102088061001e6000396000f30060606040526004361061004c576000357c0100000000000000000000000000000000000000000000000000000000900463ffffffff168063b32fead514610051578063ce6d41de14610078575b600080fd5b341561005c57600080fd5b6100766004808035600019169060200190919050506100a9565b005b341561008357600080fd5b61008b61013c565b60405180826000191660001916815260200191505060405180910390f35b806000803373ffffffffffffffffffffffffffffffffffffffff1673ffffffffffffffffffffffffffffffffffffffff1681526020019081526020016000206000018160001916905550426000803373ffffffffffffffffffffffffffffffffffffffff1673ffffffffffffffffffffffffffffffffffffffff1681526020019081526020016000206001018190555050565b6000806000803373ffffffffffffffffffffffffffffffffffffffff1673ffffffffffffffffffffffffffffffffffffffff168152602001908152602001600020600101544203905060b48111151561019457600080fd5b6000803373ffffffffffffffffffffffffffffffffffffffff1673ffffffffffffffffffffffffffffffffffffffff16815260200190815260200160002060000154915050905600a165627a7a72305820ce89ee00a06b32d2db198d897de5fbb26b2b04cb5c352b3a9053b0b5071abead0029",
  "source": "pragma solidity ^0.4.2;\n\ncontract Capsule {\n\n  struct Message {\n    bytes32 blurb;\n    uint timeStamp;\n  }\n\n  mapping (address => Message) messages;\n\n  function setMessage(bytes32 message) public {\n    messages[msg.sender].blurb = message;\n    messages[msg.sender].timeStamp = now;\n\n  }\n\n  function getMessage() returns(bytes32) {\n    uint timePassed = now - messages[msg.sender].timeStamp;\n    require(timePassed > 180);\n\n    return messages[msg.sender].blurb;\n\n  }\n\n}",
  "sourcePath": "/Users/emessess/FSA/Senior/Stackathon/Notes/contracts/Capsule.sol",
  "compiler": {
    "name": "solc",
    "version": "0.4.18+commit.9cf6e910.Emscripten.clang"
  },
  "schemaVersion": "1.0.1",
  "updatedAt": "2017-11-11T21:33:10.753Z"
}